S016000074657374206166746572206C65632E73726563C8
S11300000C942A000C9447000C9447000C9447006D
S11300100C9447000C9447000C9447000C94470040
S11300200C9447000C9447000C9447000C94470030
S11300300C9447000C9447000C9447000C94470020
S11300400C94F2040C9447000C9447000C94470061
S11300500C94470011241FBECFE5D8E0DEBFCDBF0E
S113006011E0A0E6B0E0E0E7FFE002C005900D92E9
S1130070A233B107D9F721E0A2E3B1E001C01D9298
S1130080A136B207E1F70E94A9040C94B6070C94B8
S113009000000E94B8060E9430030E94890266E0B4
S11300A081E00E94AE040E943D0180E590E00E9440
S11300B0CB066F3F71058105910561F44AE060E666
S11300C070E080E090E00E94120761E080E590E03B
S11300D00E9409070E944302C12CD12CA12CB12CEF
S11300E0E12CF12C00E010E00E944C010E948601FA
S11300F0EC010E9494028334B9F50E944F040E94DB
S11301007B028130C9F40E944F0489E690E00E948A
S1130110B8032FEF84E39CE0215080409040E1F746
S113012000C0000080E00E945904C12CD12CA12CF5
S1130130B12CE12CF12C13C00E944F0482E890E012
S11301400E94B8032FEF84E39CE02150804090404C
S1130150E1F700C0000021E0C216D10419F000E06C
S113016010E002C002E310E0CE018D970697A8F4D8
S1130170E114F104C1F4C233D105E9F1CD32D10562
S1130180B9F00233110528F50E32110560F4C12CC3
S1130190D12CAA24A394B12C06C0CE32D10518F4D4
S11301A0E114F10449F081E0A816B104B9F404C0E3
S11301B0C12CD12CA12CB12C0C171D0711F48E01CC
S11301C093CF0E944F048DE890E00E94B80360E250
S11301D028C0A12CB12CCC24C394D12CC233D1057A
S11301E070F491E0E916F10451F021E0C216D10453
S11301F031F0E801E4CFC12CD12CA12CB12C0E9408
S11302009F048B34910510F5E114F10451F50C179A
S11302101D07A9F20E944F048CE990E00E94B803E4
S113022060E482E00E94A80660E081E00E94B003DE
S113023082E990E00E94B803BE0180E090E00E9451
S1130240CB0360E080E00E94B003B9CFE114F10475
S113025041F480E00E947704EE24E394F12C00E062
S113026010E00C171D0709F4AACF0E944F0481EA7D
S113027090E00E94B80360E8D4CF0E949504909364
S1130280400180933F01E1E4F1E08193919321E007
S1130290E535F207D1F70895CF93DF93C09132018A
S11302A0D0E00E949504CC0FDD1FCF5BDE4F998315
S11302B0888380913201E82FF0E0EE0FFF1FEF5B9F
S11302C0FE4F208131813093400120933F018F5FA5
S11302D08A3019F08093320102C010923201E1E4B5
S11302E0F1E080E090E021913191820F931F21E0B1
S11302F0E535F207C1F76AE070E00E943E077093AB
S1130300560160935501DF91CF9108958091550175
S1130310909156010895FC019F01281B390B4191CE
S11303204111FACF822F0895CF9386EA90E00E947C
S1130330B80360E070E081E090E00E94B003C0E0A8
S11303400E9494028435E1F390ED980F9A3058F4AA
S1130350EC2FF0E0E95AFE4F8083CF5F8AE290E011
S11303600E94AE03EDCF8D3359F70E944F04EC2F5A
S1130370F0E0E95AFE4F108243E351E06AE070E096
S113038080E090E0CF910C94D706FF920F931F93D7
S1130390CF93DF938C01D62FC72F0E948B01F82EA9
S11303A08D2F9C2F0E948B01F8120BC0D801ED2FCA
S11303B0FC2F9D91992339F08191882321F098177E
S11303C0C1F380E001C081E0DF91CF911F910F91D3
S11303D0FF900895CF9382EB90E00E94B8032FEF33
S11303E082E597E0215080409040E1F700C0000092
S11303F00E944F0460E070E080E090E00E94B0034F
S11304008BEB90E00E94B80360E070E081E090E044
S11304100E94B003C0E00E9494028435E1F390EDA1
S1130420980F9A3058F4EC2FF0E0E95AFE4F80838D
S1130430CF5F8AE290E00E94AE03EDCF8D3359F78F
S1130440EC2FF0E0E95AFE4F10824AE050E067E5F5
S113045071E080E090E00E9412078CEC90E00E9432
S1130460B80361E070E080E590E00E9409072FEF97
S113047084E39CE0215080409040E1F700C00000FC
S1130480CF910C944F04CF9387ED90E00E94B80372
S113049060E070E081E090E00E94B00385EE90E0BF
S11304A00E94B803C0E08FEC8C0F823020F00E94D1
S11304B09402C82FF8CF0E944F04C133D1F40E9494
S11304C0940167E571E083E391E00E94C50188230C
S11304D019F0CF910C94EA0180EF90E00E94B803E8
S11304E02FEF80E792E0215080409040E1F700C078
S11304F00000CF9108950E94940167E571E083E3C1
S113050091E00E94C50191E0811101C090E0892F22
S11305100895CF93C8E061E08C2F0E940C06CF5F52
S1130520CC30C9F7CF910895DF92EF92FF920F93E9
S11305301F93CF93DF9391E2E92E91E0F92EC8E067
S1130540D4E560E08C2F0E940C0600E010E08CE003
S1130550D82ED00E8D2D0E948B06811109C0F70173
S1130560E00FF11FD0818D2D0E948B068823D9F3D3
S11305700F5F1F4F0430110551F761E08C2F0E946B
S11305800C06CF5F84E0E80EF11CCC30D1F68D2F41
S1130590DF91CF911F910F91FF90EF90DF9008951D
S11305A0CF93C82F60E084E00E940C066C2F661F76
S11305B06627661F83E00E940C06C6FB662760F967
S11305C082E00E940C06C5FB662760F981E00E9468
S11305D00C06C4FB662760F980E00E940C0661E00B
S11305E085E00E940C068FEC97E00197F1F700C0BC
S11305F0000060E085E00E940C068FEC97E0019714
S1130600F1F700C00000C3FB662760F983E00E9495
S11306100C06C2FB662760F982E00E940C06C1FB4F
S1130620662760F981E00E940C066C2F617080E0FF
S11306300E940C0661E085E00E940C068FEC97E0B6
S11306400197F1F700C0000060E085E00E940C060D
S11306508FEC97E00197F1F700C00000CF91089567
S11306602FE788E391E0215080409040E1F700C0FB
S1130670000082E00E94D00288E20E94D0028CE056
S11306800E94D00281E00E94D0028FEC97E0019793
S1130690F1F700C0000086E00C94D002CF93C82F7D
S11306A061E084E00E940C066C2F661F6627661FBB
S11306B083E00E940C06C6FB662760F982E00E9474
S11306C00C06C5FB662760F981E00E940C06C4FB9A
S11306D0662760F980E00E940C0661E085E00E94D4
S11306E00C068FEC97E00197F1F700C0000060E082
S11306F085E00E940C068FEC97E00197F1F700C0AB
S11307000000C3FB662760F983E00E940C06C2FB6D
S1130710662760F982E00E940C06C1FB662760F937
S113072081E00E940C066C2F617080E00E940C0630
S113073061E085E00E940C068FEC97E00197F1F7E9
S113074000C0000060E085E00E940C068FEC97E09A
S11307500197F1F700C00000CF9108950C944E0367
S1130760811102C080E801C080EC860F0C94D00295
S11307700F931F93CF938C01C0E0F801EC0FF11D90
S11307808081882321F00E944E03CF5FF6CFCF9162
S11307901F910F9108954F925F926F927F92AF9243
S11307A0BF92CF92DF92EF92FF921F93CF93DF938A
S11307B0CDB7DEB764970FB6F894DEBF0FBECDBFDA
S11307C06B017C016115710581059105B1F480E32C
S11307D064960FB6F894DEBF0FBECDBFDF91CF9104
S11307E01F91FF90EF90DF90CF90BF90AF907F90DC
S11307F06F905F904F900C944E0397FF0BC08DE267
S11308000E944E03F094E094D094C094C11CD11C77
S1130810E11CF11C10E09AE0492E512C612C712C42
S1130820AA24A394B12CAC0EBD1EA10EB11CC70109
S1130830B601A30192010E948807605DF5016083FF
S113084081E0810F69017A01C114D104E104F1044A
S113085011F0182FE5CFF12EF7FC0DC0E1E0F0E028
S1130860EC0FFD1FEF0DF11DF7FCFA9580810E943E
S11308704E03FA94F1CF64960FB6F894DEBF0FBE20
S1130880CDBFDF91CF911F91FF90EF90DF90CF907C
S1130890BF90AF907F906F905F904F90089581E0EC
S11308A00E94D0028FEC97E00197F1F700C000009E
S11308B00895813031F028F0823051F0833079F09E
S11308C0089560E088E10E940C0660E089E10DC0B3
S11308D060E08BE10E940C0660E08CE106C060E001
S11308E08DE10E940C0660E08EE10C940C068130D0
S11308F031F028F0823051F0833079F0089561E0CE
S113090088E10E940C0660E089E10DC061E08BE1A2
S11309100E940C0660E08CE106C061E08DE10E945B
S11309200C0660E08EE10C940C0686E00E94E00464
S113093005966AE070E00E945207CB01089587E0B3
S11309400E94E00405966AE070E00E945207CB0121
S113095008950E94490080E090E00895813041F0BC
S113096028F0823039F43F9A3E9804C03E9801C082
S11309703E9A3F98379A86B1887F86B986B1677068
S1130980682B66B9089597B1907E97B997B1892B72
S113099087B9613011F43D9A01C03D98369A369971
S11309A0FECF84B1611104C025B190E0922B08956B
S11309B084B195B126E0969587952A95E1F7089537
S11309C060E00E94C3049C01A8E8B3E10E94A70769
S11309D0DC01CB012AE0B695A795979587952A95D2
S11309E0D1F708951F920F920FB60F9211242F93EF
S11309F03F934F935F936F937F938F939F93AF93A3
S1130A00BF93EF93FF93E0913D01F0913E01309746
S1130A1009F00995FF91EF91BF91AF919F918F914B
S1130A207F916F915F914F913F912F910F900FBEE6
S1130A300F901F901895982F977086958695869598
S1130A40613009F44DC020F0623009F496C0089575
S1130A508130B1F028F0823019F1833089F10895A2
S1130A604AB321E030E0B90102C0660F771F9A95BE
S1130A70E2F7CB01942F982B9ABB9BB3809547C088
S1130A8047B321E030E0B90102C0660F771F9A95A1
S1130A90E2F7CB01942F982B97BB98B3809549C06C
S1130AA044B321E030E0B90102C0660F771F9A9584
S1130AB0E2F7CB01942F982B94BB95B380954AC051
S1130AC041B321E030E0B90102C0660F771F9A9567
S1130AD0E2F7CB01942F982B91BB92B380954BC036
S1130AE08130C1F028F0823031F18330A9F10895CA
S1130AF04AB321E030E0B90102C0660F771F9A952E
S1130B00E2F7CB018095942F98239ABB9BB389235A
S1130B108BBB089547B321E030E0B90102C0660FF2
S1130B20771F9A95E2F7CB018095942F982397BB72
S1130B3098B389234BC044B321E030E0B90102C02B
S1130B40660F771F9A95E2F7CB018095942F98232F
S1130B5094BB95B389234CC041B321E030E0B90183
S1130B6002C0660F771F9A95E2F7CB018095942F08
S1130B70982391BB92B389234DC08130B9F028F0FA
S1130B80823031F18330B1F108954AB321E030E08D
S1130B90B90102C0660F771F9A95E2F7CB01962F31
S1130BA0909594239ABB9BB3892BB2CF47B321E092
S1130BB030E0B90102C0660F771F9A95E2F7CB01C6
S1130BC0962F9095942397BB98B3892B88BB08954F
S1130BD044B321E030E0B90102C0660F771F9A9553
S1130BE0E2F7CB01962F9095942394BB95B3892B70
S1130BF085BB089541B321E030E0B90102C0660F1E
S1130C00771F9A95E2F7CB01962F9095942391BB89
S1130C1092B3892B82BB0895982F977086958695F9
S1130C2086956130C1F5813091F028F08230D9F099
S1130C30833029F108954BB321E030E0B90102C0BB
S1130C40660F771F9A95E2F7CB01842B38C048B31F
S1130C5021E030E0B90102C0660F771F9A95E2F7F0
S1130C60CB01842B3AC045B321E030E0B90102C086
S1130C70660F771F9A95E2F7CB01842B3CC042B3F1
S1130C8021E030E0B90102C0660F771F9A95E2F7C0
S1130C90CB01842B3EC08130A1F028F08230F9F0E2
S1130CA0833059F108954BB321E030E0B90102C01B
S1130CB0660F771F9A95E2F7CB01809584238BBB4F
S1130CC0089548B321E030E0B90102C0660F771FF0
S1130CD09A95E2F7CB018095842388BB089545B3A8
S1130CE021E030E0B90102C0660F771F9A95E2F760
S1130CF0CB018095842385BB089542B321E030E085
S1130D00B90102C0660F771F9A95E2F7CB0180956F
S1130D10842382BB0895282F27708695869586950F
S1130D20813049F030F0823041F0833079F480B37F
S1130D3005C089B303C086B301C083B390E002C089
S1130D40959587952A95E2F78170089580E0089536
S1130D50813041F028F0823039F0833039F0089541
S1130D606BBB089568BB089565BB089562BB089585
S1130D700F931F93CF9301E011E0C0E0F80161915C
S1130D808F018C2F0E941B05CF5FC032B9F7CF9122
S1130D901F910F9108959FBB8EBBE198E298E09A52
S1130DA0E099FECF6DB370E080E090E00895AF92DB
S1130DB0BF92CF92DF92EF92FF920F931F93CF9344
S1130DC0DF936C01D62F8A010E94CB06F801608361
S1130DD07801C0E0CD1791F0F70181917F0188235C
S1130DE069F0CF5F8C2F90E05801A80EB91E8C0DCE
S1130DF09D1D0E94CB06F5016083ECCFDF91CF915E
S1130E001F910F91FF90EF90DF90CF90BF90AF9024
S1130E1008959FBB8EBB6DBBE098E29AE19AE1997D
S1130E20FECF0895CF92DF92EF92FF920F931F931C
S1130E30CF93DF936C01D42F8B017C01C0E0CD13E1
S1130E400EC060E0C6018D0F911DDF91CF911F91FF
S1130E500F91FF90EF90DF90CF900C940907F80169
S1130E6061918F01662341F0C7010E940907CF5F9A
S1130E708FEFE81AF80AE3CFDC2FE3CFAA1BBB1BE2
S1130E8051E107C0AA1FBB1FA617B70710F0A61B86
S1130E90B70B881F991F5A95A9F780959095BC01A7
S1130EA0CD01089597FB072E16F4009407D077FD23
S1130EB009D00E943E0707FC05D03EF49095819529
S1130EC09F4F0895709561957F4F0895A1E21A2E62
S1130ED0AA1BBB1BFD010DC0AA1FBB1FEE1FFF1FDA
S1130EE0A217B307E407F50720F0A21BB30BE40B2A
S1130EF0F50B661F771F881F991F1A9469F7609571
S1130F007095809590959B01AC01BD01CF0108952A
S1130F10052E97FB1EF400940E949F0757FD07D0EF
S1130F200E94660707FC03D04EF40C949F0750956B
S1130F304095309521953F4F4F4F5F4F08959095C1
S1130F408095709561957F4F8F4F9F4F0895A29F15
S1130F50B001B39FC001A39F700D811D1124911D89
S1130F60B29F700D811D1124911D0895F894FFCF37
S1130F7031323334353637380073797374656D2004
S1130F8072657365742073757373636566756C6CD1
S1130F90790077726F6E6720706173730046494EF3
S1130FA0450074656D70206973203A00686561744A
S1130FB0006669726500696E73657274207061738E
S1130FC073005365742070617373006D61782070D1
S1130FD061737320697339206E756D00506173738A
S1130FE02053617665640031206368616E67652013
S1130FF070617373003220636F6E74696E7565007F
S11310006661696C656420746F206368616E6765EE
S113101000000000000000010100000000020202C4
S113102002000000000000000000000000000000BA
S1131030003738392F3435362A3132332D43303D99
S10510402B007F
S9030000FC
